:100000000C945D000C9485000C9485000C94850084
:100010000C9485000C9485000C9485000C9485004C
:100020000C9485000C9485000C9485000C9485003C
:100030000C9485000C9485000C9485000C9485002C
:100040000C9450020C9485000C94C0020C949A02FB
:100050000C9485000C9485000C9485000C9485000C
:100060000C9485000C94850000000008000201003B
:100070000003040700000000000000000000000072
:10008000250028002B0000000000240027002A0083
:10009000040404040404040402020202020203032E
:1000A0000303030301020408102040800102040836
:1000B0001020010204081020B80311241FBECFEF46
:1000C000D8E0DEBFCDBF11E0A0E0B1E0EEE1F8E0A6
:1000D00002C005900D92A034B107D9F721E0A0E449
:1000E000B1E001C01D92A63EB207E1F710E0CDE5F8
:1000F000D0E004C02197FE010E940704CC35D1074F
:10010000C9F70E94F2020C940D040C94000090E0D8
:10011000FC01EC55FF4F249180579F4FFC018491C7
:10012000882399F090E0880F991FFC01EA57FF4F50
:10013000A591B491FC01E458FF4F859194918FB73C
:10014000F894EC91E22BEC938FBF089590E0FC01C2
:10015000E859FF4F2491FC01EC55FF4F3491FC010D
:10016000E057FF4FE491EE23C9F0222339F023300A
:1001700001F1A8F4213019F1223029F1F0E0EE0F5D
:10018000FF1FE458FF4FA591B4918FB7F894EC91FD
:10019000611126C030953E233C938FBF08952730D0
:1001A000A9F02830C9F0243049F7809180008F7D74
:1001B00003C0809180008F7780938000DFCF84B56B
:1001C0008F7784BDDBCF84B58F7DFBCF8091B0006E
:1001D0008F778093B000D2CF8091B0008F7DF9CF20
:1001E0003E2BDACFAF92BF92CF92DF92EF92FF9287
:1001F0000F931F93CF93DF936C017B018B01040F4F
:10020000151FEB015E01AE18BF08C017D10759F0EA
:100210006991D601ED91FC910190F081E02DC6012C
:100220000995892B79F7C501DF91CF911F910F9126
:10023000FF90EF90DF90CF90BF90AF900895FC01BA
:10024000538D448D252F30E0842F90E0821B930B3B
:10025000541710F0CF96089501970895FC01918DE1
:10026000828D981761F0A28DAE0FBF2FB11D5D96E4
:100270008C91928D9F5F9F73928F90E008958FEF86
:100280009FEF0895FC01918D828D981731F0828D3A
:10029000E80FF11D858D90E008958FEF9FEF089591
:1002A000FC01918D228D892F90E0805C9F4F821BF5
:1002B00091098F739927089589E491E00E94500174
:1002C00021E0892B09F420E0822F089580E090E05E
:1002D000892B29F00E945C0181110C940000089583
:1002E000FC01A48DA80FB92FB11DA35ABF4F2C91AB
:1002F000848D90E001968F739927848FA689B789A2
:100300002C93A089B1898C91837080648C93938D98
:10031000848D981306C00288F389E02D80818F7D3B
:1003200080830895EF92FF920F931F93CF93DF93F3
:10033000EC0181E0888F9B8D8C8D98131AC0E88921
:10034000F989808185FF15C09FB7F894EE89FF89F0
:100350006083E889F98980818370806480839FBF8E
:1003600081E090E0DF91CF911F910F91FF90EF908E
:100370000895F62E0B8D10E00F5F1F4F0F7311279E
:10038000E02E8C8D8E110CC00FB607FCFACFE889D9
:10039000F989808185FFF5CFCE010E947001F1CFF0
:1003A000EB8DEC0FFD2FF11DE35AFF4FF0829FB74D
:1003B000F8940B8FEA89FB8980818062CFCFCF933D
:1003C000DF93EC01888D8823B9F0AA89BB89E8897D
:1003D000F9898C9185FD03C0808186FD0DC00FB623
:1003E00007FCF7CF8C9185FFF2CF808185FFEDCFA1
:1003F000CE010E947001E9CFDF91CF910895FC01F9
:1004000001900020E9F73197AF01481B590BBC015F
:1004100089E491E00C94F2008F929F92AF92BF9288
:100420000F931F93CF93DF93CDB7DEB7A1970FB68E
:10043000F894DEBF0FBECDBF19A2423008F44AE0E7
:100440008E010F5D1F4F842E912CB12CA12CA50184
:1004500094010E94E503E62FB901CA01EA30F4F4E1
:10046000E05DD801EE938D01232B242B252B79F70A
:1004700090E080E0109719F0CD010E94FF01A19655
:100480000FB6F894DEBF0FBECDBFDF91CF911F91A5
:100490000F91BF90AF909F908F900895E95CE1CF4E
:1004A0001F920F920FB60F9211242F933F938F93A9
:1004B0009F93AF93BF938091450190914601A09186
:1004C0004701B09148013091440123E0230F2D37BB
:1004D00058F50196A11DB11D20934401809345015B
:1004E00090934601A0934701B09348018091400149
:1004F00090914101A0914201B09143010196A11D4B
:10050000B11D8093400190934101A0934201B093AB
:100510004301BF91AF919F918F913F912F910F9088
:100520000FBE0F901F90189526E8230F0296A11D6D
:10053000B11DD2CF1F920F920FB60F9211242F939D
:100540003F934F935F936F937F938F939F93AF935B
:10055000BF93EF93FF9389E491E00E947001FF91B4
:10056000EF91BF91AF919F918F917F916F915F912B
:100570004F913F912F910F900FBE0F901F901895A4
:100580001F920F920FB60F9211242F938F939F9368
:10059000EF93FF93E0915901F0915A018081E0912E
:1005A0005F01F091600182FD1BC09081809162012A
:1005B0008F5F8F7320916301821741F0E091620198
:1005C000F0E0E75BFE4F958F80936201FF91EF9122
:1005D0009F918F912F910F900FBE0F901F901895A4
:1005E0008081F4CF789484B5826084BD84B58160C5
:1005F00084BD85B5826085BD85B5816085BD8091EE
:100600006E00816080936E00109281008091810065
:10061000826080938100809181008160809381005D
:10062000809180008160809380008091B10084601F
:100630008093B1008091B00081608093B000809180
:100640007A00846080937A0080917A00826080933F
:100650007A0080917A00816080937A0080917A009C
:10066000806880937A001092C100809100010E94FE
:100670008700809102010E948700809104010E94FE
:100680008700809106010E948700E0915901F09156
:100690005A0182E08083E0915501F0915601108269
:1006A000E0915701F091580180E18083109261013F
:1006B000E0915D01F0915E0186E08083E0915B0155
:1006C000F0915C01808180618083E0915B01F09119
:1006D0005C01808188608083E0915B01F0915C0126
:1006E000808180688083E0915B01F0915C01808172
:1006F0008F7D808390E0A92E90E0B92E8AE191E071
:100700000E94FF018DE291E00E94FF01C8E0D1E06C
:1007100083E0C82ED12CE12CF12C22971881812F57
:100720000E94870061E0812F0E94A60080E391E093
:100730000E94FF014AE0C701B6010E940C028DE24F
:1007400091E00E94FF0181E0C81AD108E108F10898
:100750008FEFC816D806E806F806F9F6A114B1041A
:1007600069F20E945C01882349F20E940000C6CF12
:10077000E9E4F1E01382128288EE93E0A0E0B0E0B9
:1007800084839583A683B7838CE091E091838083F3
:1007900085EC90E09587848784EC90E09787868746
:1007A00080EC90E0918B808B81EC90E0938B828B3E
:1007B00082EC90E0958B848B86EC90E0978B868B17
:1007C000118E128E138E148E0895A1E21A2EAA1B7A
:1007D000BB1BFD010DC0AA1FBB1FEE1FFF1FA217F1
:1007E000B307E407F50720F0A21BB30BE40BF50BEE
:1007F000661F771F881F991F1A9469F76095709577
:10080000809590959B01AC01BD01CF010895EE0F3D
:0E081000FF1F0590F491E02D0994F894FFCF9E
:10081E00060009000A000B00000000009201F20021
:10082E001F01DF0150012E014201696E20646563D4
:10083E00696D616C546F42696E617279000D0A00C8
:10084E0073697A6520696E20737465702075700007
:00000001FF
