:100000000C945C000C9479000C9479000C947900A9
:100010000C9479000C9479000C9479000C9479007C
:100020000C9479000C9479000C9479000C9479006C
:100030000C9479000C9479000C9479000C9479005C
:100040000C940B010C9479000C9479000C947900B9
:100050000C9479000C9479000C9479000C9479003C
:100060000C9479000C947900000000080002010053
:100070000003040700000000000000000000000072
:10008000250028002B0000000000240027002A0083
:10009000040404040404040402020202020203032E
:1000A0000303030301020408102040800102040836
:1000B000102001020408102011241FBECFEFD8E049
:1000C000DEBFCDBF11E0A0E0B1E0E0E9F4E002C0A6
:1000D00005900D92A830B107D9F721E0A8E0B1E072
:1000E00001C01D92A131B207E1F70E9455010C94A5
:1000F00046020C94000090E0FC01EC55FF4F249167
:1001000080579F4FFC018491882399F090E0880FDD
:10011000991FFC01EA57FF4FA591B491FC01E458E7
:10012000FF4F859194918FB7F894EC91E22BEC936B
:100130008FBF089590E0FC01E859FF4F2491FC0126
:10014000EC55FF4F3491FC01E057FF4FE491EE2353
:10015000C9F0222339F0233001F1A8F4213019F13C
:10016000223029F1F0E0EE0FFF1FE458FF4FA59178
:10017000B4918FB7F894EC91611126C030953E236D
:100180003C938FBF08952730A9F02830C9F0243060
:1001900049F7809180008F7D03C0809180008F7728
:1001A00080938000DFCF84B58F7784BDDBCF84B5AB
:1001B0008F7DFBCF8091B0008F778093B000D2CF3E
:1001C0008091B0008F7DF9CF3E2BDACF3FB7F89406
:1001D00080910D0190910E01A0910F01B09110013D
:1001E00026B5A89B05C02F3F19F00196A11DB11D92
:1001F0003FBFBA2FA92F982F8827BC01CD01620FCE
:10020000711D811D911D42E0660F771F881F991F88
:100210004A95D1F708951F920F920FB60F921124AD
:100220002F933F938F939F93AF93BF938091090137
:1002300090910A01A0910B01B0910C01309108013D
:1002400023E0230F2D3758F50196A11DB11D2093F2
:1002500008018093090190930A01A0930B01B093C8
:100260000C0180910D0190910E01A0910F01B091B0
:1002700010010196A11DB11D80930D0190930E01F7
:10028000A0930F01B0931001BF91AF919F918F91F7
:100290003F912F910F900FBE0F901F90189526E859
:1002A000230F0296A11DB11DD2CF789484B5826030
:1002B00084BD84B5816084BD85B5826085BD85B50A
:1002C000816085BD80916E00816080936E00109288
:1002D0008100809181008260809381008091810003
:1002E0008160809381008091800081608093800094
:1002F0008091B10084608093B1008091B0008160F2
:100300008093B00080917A00846080937A0080911D
:100310007A00826080937A0080917A008160809375
:100320007A0080917A00806880937A001092C100F0
:10033000809100010E947B00809102010E947B005D
:10034000809104010E947B00809106010E947B0045
:1003500020E0C22E20E0D22E90E0E92E91E0F92E8E
:10036000F701019111917F01D0E0C0E0C801992708
:100370009C0128593F4F1901802F0E947B00209734
:1003800029F460E0802F0E949A002AC0CF3FD10557
:1003900011F461E0F7CFF1018491833009F45CC07E
:1003A00048F48130C9F0823009F451C0C038D10519
:1003B00084F7E7CF873009F459C0883009F45EC06C
:1003C0008430A1F780918000806280938000D09378
:1003D0008B00C0938A0004C084B5806884BDC7BD0B
:1003E0000E94E6002B013C0183E0882E912CA12C79
:1003F000B12C0E94E6006419750986099709683EC8
:10040000734081059105A8F3E1E08E1A9108A108D7
:10041000B108F8EE4F0EF3E05F1E611C711C8114F1
:100420009104A104B10429F72196C11531E0D30745
:1004300009F0A2CF88E0E81681E0F80609F090CF35
:10044000C114D10409F488CF0E94000085CF84B57F
:10045000806284BDC8BDC4CF8091800080688093D5
:100460008000D0938900C0938800BACF8091B000FB
:1004700080688093B000C093B300B2CF8091B00089
:1004800080628093B000C093B400AACFF894FFCFED
:08049000060009000A000B0040
:00000001FF
